:020000040000fa
:04025c00e0140000aa
:020000040000fa
:04021000e0140000f6
:020000040000fa
:04027400e014000092
:020000040000fa
:04033400e0140000d1
:020000040000fa
:04035c00e0140000a9
:020000040000fa
:04027000e014000096
:020000040000fa
:04022c00e0140000da
:020000040000fa
:04023c00e0140000ca
:020000040000fa
:0402bc00e01400004a
:020000040000fa
:0402c000e014000046
:020000040000fa
:0402c400e014000042
:020000040000fa
:0402c800e01400003e
:020000040000fa
:04028000e014000086
:020000040000fa
:04028400e014000082
:020000040000fa
:04039c00e014000069
:020000040000fa
:04022800e0140000de
:020000040000fa
:04027800e01400008e
:020000040000fa
:04029c00e01400006a
:020000040000fa
:0402fc00e01400000a
:020000040000fa
:04030000e014000005
:020000040000fa
:04026000e0140000a6
:020000040000fa
:04026400e0140000a2
:020000040000fa
:04027c00e01400008a
:020000040000fa
:04028800e01400007e
:020000040000fa
:0402b000e014000056
:020000040000fa
:0402b400e014000052
:020000040000fa
:0402b800e01400004e
:020000040000fa
:04023800e0140000ce
:020000040000fa
:0402e000e014000026
:020000040000fa
:0402e400e014000022
:020000040000fa
:0402e800e01400001e
:020000040000fa
:0402f400e014000012
:020000040000fa
:0402f800e01400000e
:020000040000fa
:04030400e014000001
:020000040000fa
:04030800e0140000fd
:020000040000fa
:04030c00e0140000f9
:020000040000fa
:04031000e0140000f5
:020000040000fa
:04031400e0140000f1
:020000040000fa
:04031800e0140000ed
:020000040000fa
:04031c00e0140000e9
:020000040000fa
:04032400e0140000e1
:020000040000fa
:04032800e0140000dd
:020000040000fa
:04033800e0140000cd
:020000040000fa
:04033c00e0140000c9
:020000040000fa
:04034000e0140000c5
:020000040000fa
:04034400e0140000c1
:020000040000fa
:04034c00e0140000b9
:020000040000fa
:04035000e0140000b5
:020000040000fa
:04035400e0140000b1
:020000040000fa
:04035800e0140000ad
:020000040000fa
:04036000e0140000a5
:020000040000fa
:04036400e0140000a1
:020000040000fa
:04036800e01400009d
:020000040000fa
:04034800e0140000bd
:020000040000fa
:04026c00e01400009a
:020000040000fa
:0402f000e014000016
:020000040000fa
:04037c00e014000089
:020000040000fa
:04021800e0140000ee
:020000040000fa
:04023000e0140000d6
:020000040000fa
:04024000e0140000c6
:020000040000fa
:04028c00e01400007a
:020000040000fa
:04029000e014000076
:020000040000fa
:0402cc00e01400003a
:020000040000fa
:0402d000e014000036
:020000040000fa
:0402d400e014000032
:020000040000fa
:0402d800e01400002e
:020000040000fa
:04039800e01400006d
:020000040000fa
:04020c00e0140000fa
:020000040000fa
:0402dc00e01400002a
:020000040000fa
:04032000e0140000e5
:020000040000fa
:04020800e0140000fe
:020000040000fa
:04021c00e0140000ea
:020000040000fa
:04022000e0140000e6
:020000040000fa
:04022400e0140000e2
:020000040000fa
:04026800e01400009e
:020000040000fa
:0402ec00e01400001a
:020000040000fa
:04037800e01400008d
:020000040000fa
:04024c00e0140000ba
:020000040000fa
:04025000e0140000b6
:020000040000fa
:0402a800e01400005e
:020000040000fa
:0402ac00e01400005a
:020000040000fa
:04039000e014000075
:020000040000fa
:04039400e014000071
:020000040000fa
:04021400e0140000f2
:020000040000fa
:04023400e0140000d2
:020000040000fa
:04024400e0140000c2
:020000040000fa
:04024800e0140000be
:020000040000fa
:04029400e014000072
:020000040000fa
:04029800e01400006e
:020000040000fa
:04032c00e0140000d9
:020000040000fa
:04025400e0140000b2
:020000040000fa
:04025800e0140000ae
:020000040000fa
:04033000e0140000d5
:020000040000fa
:0402a000e014000066
:020000040000fa
:0402a400e014000062
:020000040000fa
:04036c00e014000099
:020000040000fa
:04037000e014000095
:020000040000fa
:04037400e014000091
:020000040000fa
:04038400e014000081
:020000040000fa
:04038800e01400007d
:020000040000fa
:04038c00e014000079
:020000040000fa
:04038000e014000085
:020000040000fa
:080000001011040000000000d3
:020000040000fa
:102220000f8020000eff27000e0188000000000034
:10223000000020000000e000020032000001200049
:102240002002880014000700820007000000e00060
:1022500003003a00000020000100200002003700c7
:102260000000200001002000810f700001003200fa
:1022700014000700000020000000e000020032000f
:1022800000000200000000009613020000000000a1
:102290000040da000000fe004440a90020002000b9
:1022a0000000e000030032001000200090018800d0
:1022b0004440a800000006008a1f78008b1f7800a9
:1022c00000000600a1028800800478000000eb00f6
:1022d0001f003700e284440054a0b4009905ba00fe
:1022e000e284440054a0b4009906ba00e284440099
:1022f00054a0b4000006eb00476fde00fd07b200fb
:10230000ae018800636ce10003003a00eaff0700b9
:102310000000eb000e003700606ce10008003a009e
:10232000004deb000a05e800020039003420ec0003
:102330000af0a0008b05e900f9ff3e000400370019
:102340006168e100010032000086eb000b0007002d
:1023500019c7ba001905ba000e04e00003003a00dc
:102360000a00e000dbff3a0000000600fe07b200b2
:10237000ae0288008a047800f5ff37000cd0a30075
:10238000e20f4d001c00390089027800354dba007b
:102390000a05e800020039003420ec000af0a00031
:1023a0008b05e9000f003200254dba000a05e80050
:1023b000020039003420ec000af0a0008b05e9008f
:1023c000080032000c00e0000600320015cdba0013
:1023d0000a05e800020039003420ec000af0a000f1
:1023e0008b05e9008984e80054a0b4000b00e000ec
:1023f000e2ff3a00000006009902ba00055d78008d
:102400008b05e900f7ff3200c82ade00055d780081
:102410008b05e900f3ff32000c00e000f1ff320011
:1024200019ddba00eeff3700000178001001e2006c
:10243000020035001061a80011e1a80030088000fa
:10244000410880000200e000010032000089be0067
:102450000000060000000500140020000200370004
:10246000f4ff2f0000003700889fbe008a9fbe0047
:10247000841f7800170007004f0078001100330018
:10248000f0ff2f00838f6c0006003b000405650001
:102490000a00a7000800370009f0a600100020007d
:1024a00008003700820f5400838f5c00030039005e
:1024b0001000200001003e000000200009f0a700ed
:1024c0000000ea004f05be004f04be000000e0001f
:1024d000000006000004be00060007000003be0066
:1024e0000405be000200be0002000700844f750014
:1024f00000000600c70ade00f107b200f50fb200c7
:1025000008003200e1cf4200020032000170a0005a
:1025100024000500810f700001003200040805004e
:1025200044000500810f700002003a00140005000d
:102530008502e9000000400081c04800fcff3b002c
:102540000170a000240005000618280057c52700c8
:102550000202430083824b000000430081804b0055
:10256000800f5200818f5a0003003c00040050008d
:1025700085805800050037000000520081805a0015
:102580000200070001f0a200000006004f89de00f3
:102590008201780000003700881f7800030478006b
:1025a0000300e00007003d0060001000e08018001c
:1025b00060011900e081190002003b0001f02d00cc
:1025c000030037000400070008f0a70001f0a00096
:1025d0004f04780000000600889fbe008a9fbe005e
:1025e0000082700004027100048271002600320033
:1025f0000004be000200be006011b8006b0920009c
:10260000950220000182cf000a0039000541b10087
:102610000082cf00070039000541b1000982cf00d8
:10262000040039000541b1000882cf0001003900e3
:102630000541b10005425200120032000a003b0081
:1026400082817100610164008100d1000080d300ab
:102650008984d3000884d3008b05e8000442e80095
:10266000f7ff3a00070037000804440089844c0053
:1026700000004800818048008b05e9000442e90021
:10268000f9ff3a00030007004f05be004f04be00eb
:102690000000060081002000618055000b003d0015
:1026a0000b00200061fe2f000100e1001d0034003e
:1026b00082817100610164008904d1000884d30023
:1026c0000000e800faff3a00710020006100640099
:1026d0000300700002006000090032006104440041
:1026e000e0844c000988a500050032008b05e80055
:1026f0006808e10002003a008904d1000884d30090
:10270000f20f20000258e10005003d00c75ddd002a
:10271000f907b20089807500080078000000060003
:0c2720000bf827008b007800000005007b
:020000040000fa
:102000001011040000000000e014040000000000b3
:10201000e014040000000000e014040000000000d0
:10202000e014040000000000e014040000000000c0
:10203000e014040000000000e014040000000000b0
:10204000e014040000000000e014040000000000a0
:10205000e014040000000000e01404000000000090
:10206000e014040000000000e01404000000000080
:10207000e014040000000000e01404000000000070
:10208000e014040000000000e01404000000000060
:10209000e014040000000000e01404000000000050
:1020a000e014040000000000e01404000000000040
:1020b000e014040000000000e01404000000000030
:1020c000e014040000000000e01404000000000020
:1020d000e014040000000000e01404000000000010
:1020e000e014040000000000e01404000000000000
:1020f000e014040000000000e014040000000000f0
:10210000e014040000000000e014040000000000df
:10211000e014040000000000e014040000000000cf
:10212000e014040000000000e014040000000000bf
:10213000e014040000000000e014040000000000af
:10214000e014040000000000e0140400000000009f
:10215000e014040000000000e0140400000000008f
:10216000e014040000000000e0140400000000007f
:10217000e014040000000000e0140400000000006f
:10218000e014040000000000e0140400000000005f
:10219000e014040000000000e0140400000000004f
:1021a000e014040000000000e0140400000000003f
:1021b000e014040000000000e0140400000000002f
:1021c000e014040000000000e0140400000000001f
:1021d000e014040000000000e0140400000000000f
:1021e000e014040000000000e014040000000000ff
:1021f000e014040000000000e014040000000000ef
:10220000e014040000000000e014040000000000de
:10221000e014040000000000e014040000000000ce
:020000040000fa
:1000080004100000081000000c1000001010000080
:10001800141000000c1100000c1100000c1100005d
:10002800181000001c100000201000002410000010
:100038000c110000281000002c10000030100000e7
:1000480034100000381000003c1000004010000080
:1000580044100000481000000c1100000c110000b2
:100068004c10000050100000541000005810000000
:100078005c1000000c11000060100000641000000b
:100088000c110000681000006c10000070100000d7
:1000980074100000781000007c1000008010000030
:1000a80084100000881000000c1100000c110000e2
:1000b8000c1100008c10000090100000941000003b
:1000c800981000009c100000a0100000a410000070
:1000d800a8100000ac1000000c1100000c1100006a
:1000e8000c110000b0100000b41000000c1100004a
:1000f8000c110000b8100000bc1000000c1100002a
:100108000c1100000c1100000c1100000c11000073
:100118000c1100000c110000c01000000c110000b0
:100128000c110000c4100000c8100000cc10000022
:100138000c1100000c1100000c1100000c11000043
:10014800d01000000c1100000c1100000c11000070
:100158000c110000d41000000c1100000c1100005c
:100168000c110000d8100000dc100000e0100000a6
:10017800e4100000e8100000ec100000f01000008f
:10018800f4100000f8100000fc100000001100003e
:1001980004110000081100000c1100000c110000ef
:1001a8000c1100000c1100000c1100000c110000d3
:1001b8000c1100000c1100000c1100000c110000c3
:1001c8000c1100000c1100000c1100000c110000b3
:1001d8000c1100000c1100000c1100000c110000a3
:1001e8000c1100000c1100000c1100000c11000093
:0801f8000c1100000c110000c5
:020000040000fa
:10272c000c00fa00881f78006500070000032000e9
:10273c002008880010a12700100888000021ef0055
:10274c008460a90005e1a8006400470033ff07007e
:10275c006800470031ff07002e009000be0090007b
:10276c004e029000de0290000001be000400be008c
:10277c0072ff0700008fbe000b003700ea22a80092
:10278c006800470025ff07002e009000be00900057
:10279c004e029000de0290000001be000400be005c
:1027ac0066ff0700008fbe0018c0b30002002000b7
:1027bc00030424001e00be0024ff07000000e000fc
:1027cc00010035000044eb000804e000ebff3a0088
:1027dc000b003700ea22a900680047000fff070032
:1027ec002e009000be0090004e029000de02900081
:1027fc000001be000400be0050ff0700008fbe00a9
:10280c0018c0b30002002000030424001e00be0008
:10281c0010ff07000000e00001003d000044eb0049
:10282c000804e0001800320018c0b30002002000b9
:10283c00030c24001e00be0006ff07000000e00091
:10284c0001003d000044eb000804e000e1ff3a0009
:10285c000e00370068004700f0fe070068004700d4
:10286c00eefe07002e009000be0090004e0290007d
:10287c00de0290000001be000400be002fff070026
:10288c00008fbe00010037000000000018c0b3002c
:10289c0002002000030c24001e00be00edfe070009
:1028ac000000e00001003c000044eb000804e000e4
:1028bc00e8ff3a004f0478000080fa0000000600a0
:1028cc000000fa0000102000203a8800d8a2a800ce
:1028dc00d882a800e882a800e8a2a800c9e2a80053
:1028ec00e862a800d902a800d962a800d922a800e1
:1028fc00d942a800d802a800d822a800d842a80023
:10290c00d862a800c8a2a800c882a800c862a80003
:10291c00c842a800c822a800c802a800f0032000e2
:10292c0010278800e424ef00e624ef00ea24ef00ef
:10293c00ec24ef00000e2000001988002223ef0089
:10294c0000c4200020198800500020004019880085
:10295c0021e3a800d8e2a900dae2a900e802a90064
:10296c00ea02a900e822a900ea22a900d1e2a80003
:10297c00d182a800c982a8000080fa0000000600dd
:10298c000200fa00000f78009e00780041198800c0
:10299c002023a800000000000019800061006000e6
:1029ac000000e000fcff3200001880000080fa00fc
:0429bc000000060011
:020000040000fa
:0829c0000040da000000fe00f7
:00000001FF
